{
  "contractName": "TicTacToe",
  "abi": [
    {
      "constant": true,
      "inputs": [],
      "name": "player2",
      "outputs": [
        {
          "name": "",
          "type": "address"
        }
      ],
      "payable": false,
      "stateMutability": "view",
      "type": "function"
    },
    {
      "constant": true,
      "inputs": [],
      "name": "boardSize",
      "outputs": [
        {
          "name": "",
          "type": "uint8"
        }
      ],
      "payable": false,
      "stateMutability": "view",
      "type": "function"
    },
    {
      "constant": true,
      "inputs": [],
      "name": "gameCost",
      "outputs": [
        {
          "name": "",
          "type": "uint256"
        }
      ],
      "payable": false,
      "stateMutability": "view",
      "type": "function"
    },
    {
      "constant": true,
      "inputs": [],
      "name": "player1",
      "outputs": [
        {
          "name": "",
          "type": "address"
        }
      ],
      "payable": false,
      "stateMutability": "view",
      "type": "function"
    },
    {
      "inputs": [
        {
          "name": "tokenAmount",
          "type": "uint8"
        }
      ],
      "payable": false,
      "stateMutability": "nonpayable",
      "type": "constructor"
    },
    {
      "anonymous": false,
      "inputs": [
        {
          "indexed": false,
          "name": "player",
          "type": "address"
        }
      ],
      "name": "PlayerJoined",
      "type": "event"
    },
    {
      "anonymous": false,
      "inputs": [
        {
          "indexed": false,
          "name": "player",
          "type": "address"
        }
      ],
      "name": "NextPlayer",
      "type": "event"
    },
    {
      "anonymous": false,
      "inputs": [
        {
          "indexed": false,
          "name": "winner",
          "type": "address"
        }
      ],
      "name": "GameOverWithWin",
      "type": "event"
    },
    {
      "anonymous": false,
      "inputs": [],
      "name": "GameOverWithDraw",
      "type": "event"
    },
    {
      "anonymous": false,
      "inputs": [
        {
          "indexed": false,
          "name": "receiver",
          "type": "address"
        },
        {
          "indexed": false,
          "name": "amountInWei",
          "type": "uint256"
        }
      ],
      "name": "PayoutSuccess",
      "type": "event"
    },
    {
      "constant": true,
      "inputs": [],
      "name": "getBoard",
      "outputs": [
        {
          "name": "",
          "type": "address[3][3]"
        }
      ],
      "payable": false,
      "stateMutability": "view",
      "type": "function"
    },
    {
      "constant": false,
      "inputs": [],
      "name": "joinGame",
      "outputs": [],
      "payable": true,
      "stateMutability": "payable",
      "type": "function"
    },
    {
      "constant": false,
      "inputs": [],
      "name": "withdrawWin",
      "outputs": [],
      "payable": false,
      "stateMutability": "nonpayable",
      "type": "function"
    },
    {
      "constant": false,
      "inputs": [],
      "name": "emerencyCashout",
      "outputs": [],
      "payable": false,
      "stateMutability": "nonpayable",
      "type": "function"
    },
    {
      "constant": false,
      "inputs": [
        {
          "name": "x",
          "type": "uint8"
        },
        {
          "name": "y",
          "type": "uint8"
        }
      ],
      "name": "setStone",
      "outputs": [],
      "payable": false,
      "stateMutability": "nonpayable",
      "type": "function"
    }
  ],
  "bytecode": "0x606060405273ff50ebd1aa83b339173044b81ad3e6fd0a7b40166000806101000a81548173ffffffffffffffffffffffffffffffffffffffff021916908373ffffffffffffffffffffffffffffffffffffffff1602179055506003600060146101000a81548160ff021916908360ff16021790555060b4600e55341561008457600080fd5b60405160208061188f8339810160405280805190602001909190505033600a60006101000a81548173ffffffffffffffffffffffffffffffffffffffff021916908373ffffffffffffffffffffffffffffffffffffffff16021790555060648160ff161415156100f357600080fd5b6000809054906101000a900473ffffffffffffffffffffffffffffffffffffffff1673ffffffffffffffffffffffffffffffffffffffff1663095ea7b33360646040518363ffffffff167c0100000000000000000000000000000000000000000000000000000000028152600401808373ffffffffffffffffffffffffffffffffffffffff1673ffffffffffffffffffffffffffffffffffffffff16815260200182815260200192505050602060405180830381600087803b15156101b757600080fd5b5af115156101c457600080fd5b5050506040518051905050600e544201600f81905550506116a5806101ea6000396000f300606060405260043610610099576000357c0100000000000000000000000000000000000000000000000000000000900463ffffffff1680633264a34b1461009e57806359a5f12d146101125780637d3f907414610167578063c0dd941014610199578063c51d69f4146101ae578063cab896dc146101dd578063d30895e414610206578063d4f77b1c1461025b578063fb81550314610265575b600080fd5b34156100a957600080fd5b6100b161027a565b604051808260036000925b818410156101025782846020020151600360200280838360005b838110156100f15780820151818401526020810190506100d6565b5050505090500192600101926100bc565b9250505091505060405180910390f35b341561011d57600080fd5b610125610333565b604051808273ffffffffffffffffffffffffffffffffffffffff1673ffffffffffffffffffffffffffffffffffffffff16815260200191505060405180910390f35b341561017257600080fd5b610197600480803560ff1690602001909190803560ff16906020019091905050610359565b005b34156101a457600080fd5b6101ac610c1c565b005b34156101b957600080fd5b6101c1610c51565b604051808260ff1660ff16815260200191505060405180910390f35b34156101e857600080fd5b6101f0610c64565b6040518082815260200191505060405180910390f35b341561021157600080fd5b610219610c70565b604051808273ffffffffffffffffffffffffffffffffffffffff1673ffffffffffffffffffffffffffffffffffffffff16815260200191505060405180910390f35b610263610c96565b005b341561027057600080fd5b610278610f5a565b005b61028261160c565b6001600380602002604051908101604052809291906000905b8282101561032a57838260030201600380602002604051908101604052809291908260038015610316576020028201915b8160009054906101000a900473ffffffffffffffffffffffffffffffffffffffff1673ffffffffffffffffffffffffffffffffffffffff16815260200190600101908083116102cc575b50505050508152602001906001019061029b565b50505050905090565b600b60009054906101000a900473ffffffffffffffffffffffffffffffffffffffff1681565b60008073ffffffffffffffffffffffffffffffffffffffff1660018460ff1660038110151561038457fe5b600302018360ff1660038110151561039857fe5b0160009054906101000a900473ffffffffffffffffffffffffffffffffffffffff1673ffffffffffffffffffffffffffffffffffffffff161415156103dc57600080fd5b42600f541115156103ec57600080fd5b600060169054906101000a900460ff16151561040457fe5b600060149054906101000a900460ff1660ff168360ff1610151561042457fe5b600060149054906101000a900460ff1660ff168260ff1610151561044457fe5b601060009054906101000a900473ffffffffffffffffffffffffffffffffffffffff1673ffffffffffffffffffffffffffffffffffffffff163373ffffffffffffffffffffffffffffffffffffffff161415156104a057600080fd5b3360018460ff166003811015156104b357fe5b600302018360ff166003811015156104c757fe5b0160006101000a81548173ffffffffffffffffffffffffffffffffffffffff021916908373ffffffffffffffffffffffffffffffffffffffff1602179055506000601581819054906101000a900460ff168092919060010191906101000a81548160ff021916908360ff16021790555050600e544201600f81905550600090505b600060149054906101000a900460ff1660ff168160ff16101561066557601060009054906101000a900473ffffffffffffffffffffffffffffffffffffffff1673ffffffffffffffffffffffffffffffffffffffff1660018260ff166003811015156105b057fe5b600302018360ff166003811015156105c457fe5b0160009054906101000a900473ffffffffffffffffffffffffffffffffffffffff1673ffffffffffffffffffffffffffffffffffffffff1614151561060857610665565b6001600060149054906101000a900460ff160360ff168160ff16141561065857610653601060009054906101000a900473ffffffffffffffffffffffffffffffffffffffff166111d5565b610c17565b8080600101915050610548565b600090505b600060149054906101000a900460ff1660ff168160ff16101561078757601060009054906101000a900473ffffffffffffffffffffffffffffffffffffffff1673ffffffffffffffffffffffffffffffffffffffff1660018460ff166003811015156106d257fe5b600302018260ff166003811015156106e657fe5b0160009054906101000a900473ffffffffffffffffffffffffffffffffffffffff1673ffffffffffffffffffffffffffffffffffffffff1614151561072a57610787565b6001600060149054906101000a900460ff160360ff168160ff16141561077a57610775601060009054906101000a900473ffffffffffffffffffffffffffffffffffffffff166111d5565b610c17565b808060010191505061066a565b8160ff168360ff1614156108b857600090505b600060149054906101000a900460ff1660ff168160ff1610156108b757601060009054906101000a900473ffffffffffffffffffffffffffffffffffffffff1673ffffffffffffffffffffffffffffffffffffffff1660018260ff1660038110151561080257fe5b600302018260ff1660038110151561081657fe5b0160009054906101000a900473ffffffffffffffffffffffffffffffffffffffff1673ffffffffffffffffffffffffffffffffffffffff1614151561085a576108b7565b6001600060149054906101000a900460ff160360ff168160ff1614156108aa576108a5601060009054906101000a900473ffffffffffffffffffffffffffffffffffffffff166111d5565b610c17565b808060010191505061079a565b5b6001600060149054906101000a900460ff160360ff1682840160ff161415610a1157600090505b600060149054906101000a900460ff1660ff168160ff161015610a1057601060009054906101000a900473ffffffffffffffffffffffffffffffffffffffff1673ffffffffffffffffffffffffffffffffffffffff1660018260ff1660038110151561094757fe5b60030201826001600060149054906101000a900460ff16030360ff1660038110151561096f57fe5b0160009054906101000a900473ffffffffffffffffffffffffffffffffffffffff1673ffffffffffffffffffffffffffffffffffffffff161415156109b357610a10565b6001600060149054906101000a900460ff160360ff168160ff161415610a03576109fe601060009054906101000a900473ffffffffffffffffffffffffffffffffffffffff166111d5565b610c17565b80806001019150506108df565b5b6002600060149054906101000a900460ff160a60ff16600060159054906101000a900460ff1660ff161415610a4d57610a4861138f565b610c17565b600a60009054906101000a900473ffffffffffffffffffffffffffffffffffffffff1673ffffffffffffffffffffffffffffffffffffffff16601060009054906101000a900473ffffffffffffffffffffffffffffffffffffffff1673ffffffffffffffffffffffffffffffffffffffff161415610b2d57600b60009054906101000a900473ffffffffffffffffffffffffffffffffffffffff16601060006101000a81548173ffffffffffffffffffffffffffffffffffffffff021916908373ffffffffffffffffffffffffffffffffffffffff160217905550610b91565b600a60009054906101000a900473ffffffffffffffffffffffffffffffffffffffff16601060006101000a81548173ffffffffffffffffffffffffffffffffffffffff021916908373ffffffffffffffffffffffffffffffffffffffff1602179055505b7f637351f91da430278368fb3e486c8c3da47b2e6ce4d28b2c404cb044702ca7e1601060009054906101000a900473ffffffffffffffffffffffffffffffffffffffff16604051808273ffffffffffffffffffffffffffffffffffffffff1673ffffffffffffffffffffffffffffffffffffffff16815260200191505060405180910390a15b505050565b42600f54101515610c2c57600080fd5b600060169054906101000a900460ff161515610c4757600080fd5b610c4f61138f565b565b600060149054906101000a900460ff1681565b67016345785d8a000081565b600a60009054906101000a900473ffffffffffffffffffffffffffffffffffffffff1681565b600073ffffffffffffffffffffffffffffffffffffffff16600b60009054906101000a900473ffffffffffffffffffffffffffffffffffffffff1673ffffffffffffffffffffffffffffffffffffffff16141515610cf057fe5b6001600060166101000a81548160ff02191690831515021790555067016345785d8a000034141515610d2157600080fd5b33600b60006101000a81548173ffffffffffffffffffffffffffffffffffffffff021916908373ffffffffffffffffffffffffffffffffffffffff1602179055507f31e760aa525306aba638a784082a013b6a1cc0a9a1789f3f22281c0453b10b1f600b60009054906101000a900473ffffffffffffffffffffffffffffffffffffffff16604051808273ffffffffffffffffffffffffffffffffffffffff1673ffffffffffffffffffffffffffffffffffffffff16815260200191505060405180910390a16000600243811515610df557fe5b061415610e6457600b60009054906101000a900473ffffffffffffffffffffffffffffffffffffffff16601060006101000a81548173ffffffffffffffffffffffffffffffffffffffff021916908373ffffffffffffffffffffffffffffffffffffffff160217905550610ec8565b600a60009054906101000a900473ffffffffffffffffffffffffffffffffffffffff16601060006101000a81548173ffffffffffffffffffffffffffffffffffffffff021916908373ffffffffffffffffffffffffffffffffffffffff1602179055505b600e544201600f819055507f637351f91da430278368fb3e486c8c3da47b2e6ce4d28b2c404cb044702ca7e1601060009054906101000a900473ffffffffffffffffffffffffffffffffffffffff16604051808273ffffffffffffffffffffffffffffffffffffffff1673ffffffffffffffffffffffffffffffffffffffff16815260200191505060405180910390a1565b6000600a60009054906101000a900473ffffffffffffffffffffffffffffffffffffffff1673ffffffffffffffffffffffffffffffffffffffff163373ffffffffffffffffffffffffffffffffffffffff1614156110c4576000600c54111515610fc357600080fd5b600c5490506000600c81905550600a60009054906101000a900473ffffffffffffffffffffffffffffffffffffffff1673ffffffffffffffffffffffffffffffffffffffff166108fc829081150290604051600060405180830381858888f19350505050151561103257600080fd5b7f2a44162a2d5223e37cacacc3f626dcfee1396e0be3616534c5c7b718f786b673600a60009054906101000a900473ffffffffffffffffffffffffffffffffffffffff1682604051808373ffffffffffffffffffffffffffffffffffffffff1673ffffffffffffffffffffffffffffffffffffffff1681526020018281526020019250505060405180910390a16111d2565b6000600d541115156110d557600080fd5b600d5490506000600d81905550600b60009054906101000a900473ffffffffffffffffffffffffffffffffffffffff1673ffffffffffffffffffffffffffffffffffffffff166108fc829081150290604051600060405180830381858888f19350505050151561114457600080fd5b7f2a44162a2d5223e37cacacc3f626dcfee1396e0be3616534c5c7b718f786b673600b60009054906101000a900473ffffffffffffffffffffffffffffffffffffffff1682604051808373ffffffffffffffffffffffffffffffffffffffff1673ffffffffffffffffffffffffffffffffffffffff1681526020018281526020019250505060405180910390a15b50565b600080600060166101000a81548160ff0219169083151502179055507f8245a3876d42d9b0bdb7f24184c03fc24e3d8a079f492b1ec9ceae70b366edf982604051808273ffffffffffffffffffffffffffffffffffffffff1673ffffffffffffffffffffffffffffffffffffffff16815260200191505060405180910390a13073ffffffffffffffffffffffffffffffffffffffff16319050600115158273ffffffffffffffffffffffffffffffffffffffff166108fc839081150290604051600060405180830381858888f19350505050151514151561131f57600a60009054906101000a900473ffffffffffffffffffffffffffffffffffffffff1673ffffffffffffffffffffffffffffffffffffffff168273ffffffffffffffffffffffffffffffffffffffff1614156113125780600c8190555061131a565b80600d819055505b61138b565b7f2a44162a2d5223e37cacacc3f626dcfee1396e0be3616534c5c7b718f786b6738282604051808373ffffffffffffffffffffffffffffffffffffffff1673ffffffffffffffffffffffffffffffffffffffff1681526020018281526020019250505060405180910390a15b5050565b60007f2207d46a2ba0f2acda06e9a222b40fd004e385738b3f868e63b2c0bfe4bc094c60405160405180910390a160008060166101000a81548160ff02191690831515021790555060023073ffffffffffffffffffffffffffffffffffffffff16318115156113fa57fe5b04905060001515600a60009054906101000a900473ffffffffffffffffffffffffffffffffffffffff1673ffffffffffffffffffffffffffffffffffffffff166108fc839081150290604051600060405180830381858888f19350505050151514156114755780600c60008282540192505081905550611503565b7f2a44162a2d5223e37cacacc3f626dcfee1396e0be3616534c5c7b718f786b673600a60009054906101000a900473ffffffffffffffffffffffffffffffffffffffff1682604051808373ffffffffffffffffffffffffffffffffffffffff1673ffffffffffffffffffffffffffffffffffffffff1681526020018281526020019250505060405180910390a15b60001515600b60009054906101000a900473ffffffffffffffffffffffffffffffffffffffff1673ffffffffffffffffffffffffffffffffffffffff166108fc839081150290604051600060405180830381858888f193505050501515141561157b5780600d60008282540192505081905550611609565b7f2a44162a2d5223e37cacacc3f626dcfee1396e0be3616534c5c7b718f786b673600b60009054906101000a900473ffffffffffffffffffffffffffffffffffffffff1682604051808373ffffffffffffffffffffffffffffffffffffffff1673ffffffffffffffffffffffffffffffffffffffff1681526020018281526020019250505060405180910390a15b50565b610120604051908101604052806003905b61162561163b565b81526020019060019003908161161d5790505090565b6060604051908101604052806003905b600073ffffffffffffffffffffffffffffffffffffffff1681526020019060019003908161164b57905050905600a165627a7a72305820e28b76b6d0511d17f0d7e4076032fe189a828af6acd9501985d88d67b5ad4c400029",
  "source": "pragma solidity ^0.4.19;\n\ninterface SSToken {\n\n  function allowance(address _owner, address _spender) external constant returns (uint remaining);\n  function approve(address _spender, uint _value) external returns (bool success);\n  function balanceOf(address _owner) external constant returns (uint balance);\n  function transfer(address _to, uint _value) external returns (bool success);\n  function transferFrom(address _from, address _to, uint _value) external returns (bool success);\n}\n\ncontract TicTacToe {\n    \n    SSToken tokenInstance = SSToken(0xfF50eBd1AA83b339173044B81Ad3E6Fd0a7B4016);\n    uint constant public gameCost = 0.1 ether;\n\n    uint8 public boardSize = 3;\n    uint8 moveCounter;\n\n    bool gameActive;\n\n    address[3][3] board;\n\n    address public player1;\n    address public player2;\n\n    uint balanceToWithdrawPlayer1;\n    uint balanceToWithdrawPlayer2;\n\n    uint timeToReact = 3 minutes;\n    uint gameValidUntil;\n\n    address activePlayer;\n\n    event PlayerJoined(address player);\n    event NextPlayer(address player);\n    event GameOverWithWin(address winner);\n    event GameOverWithDraw();\n    event PayoutSuccess(address receiver, uint amountInWei);\n    \n    function getBoard() public view returns(address[3][3]) {\n        return board;\n    }\n\n    function TicTacToe(uint8 tokenAmount) public {\n        player1 = msg.sender;\n        require(tokenAmount == 100);\n        tokenInstance.approve(msg.sender, 100);\n        gameValidUntil = now + timeToReact;\n    }\n    \n    function joinGame() public payable {\n\n        assert(player2 == address(0)); \n\n        gameActive = true;\n\n        require(msg.value == gameCost);\n        \n        player2 = msg.sender;\n        emit PlayerJoined(player2);\n\n        if(block.number % 2 == 0) {\n            activePlayer = player2;\n        } else {\n            activePlayer = player1;\n        }\n\n        gameValidUntil = now + timeToReact;\n\n        emit NextPlayer(activePlayer);\n    }\n    \n    function setWinner(address player) private {\n        gameActive = false;\n        emit GameOverWithWin(player);\n        \n        uint balanceToPayOut = address(this).balance;\n        \n        if (player.send(balanceToPayOut) != true) {\n            if (player == player1) {\n                balanceToWithdrawPlayer1 = balanceToPayOut;\n            } else {\n                balanceToWithdrawPlayer2 = balanceToPayOut;\n            }\n        } else {\n            emit PayoutSuccess(player, balanceToPayOut);\n        }\n    }\n    \n    function withdrawWin() public {\n      uint balanceToTransfer;\n        if(msg.sender == player1) {\n            require(balanceToWithdrawPlayer1 > 0);\n            balanceToTransfer = balanceToWithdrawPlayer1;\n            balanceToWithdrawPlayer1 = 0;\n            player1.transfer(balanceToTransfer);\n\n            emit PayoutSuccess(player1, balanceToTransfer);\n        } else {\n\n            require(balanceToWithdrawPlayer2 > 0);\n            balanceToTransfer = balanceToWithdrawPlayer2;\n            balanceToWithdrawPlayer2 = 0;\n            player2.transfer(balanceToTransfer);\n            emit PayoutSuccess(player2, balanceToTransfer);\n        }\n    }\n    \n    function setDraw() private {\n        \n        emit GameOverWithDraw();\n\n        gameActive = false;\n        uint balanceToPayout = address(this).balance/2;\n\n        if (player1.send(balanceToPayout) == false) {\n            balanceToWithdrawPlayer1 += balanceToPayout;\n        } else {\n            emit PayoutSuccess(player1, balanceToPayout);\n        }\n        \n        if (player2.send(balanceToPayout) == false) {\n            balanceToWithdrawPlayer2 += balanceToPayout;\n        } else {\n            emit PayoutSuccess(player2, balanceToPayout);\n        }\n    }\n    \n    function emerencyCashout() public {\n        require(gameValidUntil < now);\n        require(gameActive);\n        setDraw();\n    }\n    \n    function setStone(uint8 x, uint8 y) public {\n        \n        require(board[x][y] == address(0));\n        require(gameValidUntil > now);\n        assert(gameActive);\n        assert(x < boardSize);\n        assert(y < boardSize);\n        require(msg.sender == activePlayer);\n        board[x][y] = msg.sender;\n        moveCounter++;\n        gameValidUntil = now + timeToReact;\n        \n        for (uint8 i = 0; i < boardSize; i++) {\n            if (board[i][y] != activePlayer) {\n                break;\n            }\n            //win\n            if (i == boardSize -1 ) {\n                // winner\n                setWinner(activePlayer);\n                return;\n            }\n        }\n        \n        for (i = 0; i < boardSize; i++) {\n            if (board[x][i] != activePlayer) {\n                break;\n            }\n            //win\n            \n            if (i == boardSize -1 ) {\n                // winner\n                setWinner(activePlayer);\n                return;\n            }\n        }\n        \n        if (x == y) {\n            for (i = 0; i < boardSize; i++) {\n                if (board[i][i] != activePlayer) {\n                    break;\n                }\n                //win\n                if (i == boardSize -1 ) {\n                    // winner\n                    setWinner(activePlayer);\n                    return;\n                }\n            }\n        }\n        \n        //anti diagonal\n        if (x+y == boardSize-1) {\n            for (i = 0; i < boardSize; i++) {\n                if (board[i][(boardSize-1)-i] != activePlayer) {\n                    break;\n                }\n                //win\n                \n                if (i == boardSize -1 ) {\n                    // winner\n                    setWinner(activePlayer);\n                    return;\n                }\n            }\n        }\n        \n        //draw\n        if(moveCounter == (boardSize**2)) {\n             setDraw();\n             return;\n        }\n        \n        if (activePlayer == player1) {\n            activePlayer = player2;\n        } else {\n            activePlayer = player1;\n        }\n        emit NextPlayer(activePlayer);\n    }\n}",
  "sourcePath": "/Users/Sameul/Desktop/Block_Chain/truffle-demo-game2/contracts/TicTacToe.sol",
  "compiler": {
    "name": "solc",
    "version": "0.4.21+commit.dfe3193c.Emscripten.clang"
  },
  "schemaVersion": "2.0.0",
  "updatedAt": "2018-04-16T04:47:23.710Z"
}